{
  "contractName": "Wallet",
  "abi": [
    {
      "inputs": [
        {
          "internalType": "address[]",
          "name": "_approvers",
          "type": "address[]"
        },
        {
          "internalType": "uint256",
          "name": "_quorum",
          "type": "uint256"
        }
      ],
      "stateMutability": "nonpayable",
      "type": "constructor"
    },
    {
      "inputs": [
        {
          "internalType": "address",
          "name": "",
          "type": "address"
        },
        {
          "internalType": "uint256",
          "name": "",
          "type": "uint256"
        }
      ],
      "name": "approvals",
      "outputs": [
        {
          "internalType": "bool",
          "name": "",
          "type": "bool"
        }
      ],
      "stateMutability": "view",
      "type": "function"
    },
    {
      "inputs": [
        {
          "internalType": "uint256",
          "name": "",
          "type": "uint256"
        }
      ],
      "name": "approvers",
      "outputs": [
        {
          "internalType": "address",
          "name": "",
          "type": "address"
        }
      ],
      "stateMutability": "view",
      "type": "function"
    },
    {
      "inputs": [],
      "name": "quorum",
      "outputs": [
        {
          "internalType": "uint256",
          "name": "",
          "type": "uint256"
        }
      ],
      "stateMutability": "view",
      "type": "function"
    },
    {
      "inputs": [
        {
          "internalType": "uint256",
          "name": "",
          "type": "uint256"
        }
      ],
      "name": "transfers",
      "outputs": [
        {
          "internalType": "uint256",
          "name": "id",
          "type": "uint256"
        },
        {
          "internalType": "uint256",
          "name": "amount",
          "type": "uint256"
        },
        {
          "internalType": "address payable",
          "name": "to",
          "type": "address"
        },
        {
          "internalType": "uint256",
          "name": "approvals",
          "type": "uint256"
        },
        {
          "internalType": "bool",
          "name": "sent",
          "type": "bool"
        }
      ],
      "stateMutability": "view",
      "type": "function"
    },
    {
      "stateMutability": "payable",
      "type": "receive"
    },
    {
      "inputs": [],
      "name": "getApprovers",
      "outputs": [
        {
          "internalType": "address[]",
          "name": "",
          "type": "address[]"
        }
      ],
      "stateMutability": "view",
      "type": "function"
    },
    {
      "inputs": [
        {
          "internalType": "uint256",
          "name": "ethAmount",
          "type": "uint256"
        },
        {
          "internalType": "address payable",
          "name": "to",
          "type": "address"
        }
      ],
      "name": "createTransfer",
      "outputs": [],
      "stateMutability": "nonpayable",
      "type": "function"
    },
    {
      "inputs": [],
      "name": "getTransfers",
      "outputs": [
        {
          "components": [
            {
              "internalType": "uint256",
              "name": "id",
              "type": "uint256"
            },
            {
              "internalType": "uint256",
              "name": "amount",
              "type": "uint256"
            },
            {
              "internalType": "address payable",
              "name": "to",
              "type": "address"
            },
            {
              "internalType": "uint256",
              "name": "approvals",
              "type": "uint256"
            },
            {
              "internalType": "bool",
              "name": "sent",
              "type": "bool"
            }
          ],
          "internalType": "struct Wallet.Transfer[]",
          "name": "",
          "type": "tuple[]"
        }
      ],
      "stateMutability": "view",
      "type": "function"
    },
    {
      "inputs": [
        {
          "internalType": "uint256",
          "name": "transferId",
          "type": "uint256"
        }
      ],
      "name": "approveTransfer",
      "outputs": [
        {
          "internalType": "bool",
          "name": "",
          "type": "bool"
        }
      ],
      "stateMutability": "nonpayable",
      "type": "function"
    }
  ],
  "bytecode": "0x60806040523480156200001157600080fd5b5060405162001388380380620013888339818101604052620000379190810190620001ef565b81600090805190602001906200004f9291906200005f565b5080600181905550505062000312565b828054828255906000526020600020908101928215620000db579160200282015b82811115620000da5782518260006101000a81548173ffffffffffffffffffffffffffffffffffffffff021916908373ffffffffffffffffffffffffffffffffffffffff1602179055509160200191906001019062000080565b5b509050620000ea9190620000ee565b5090565b6200013191905b808211156200012d57600081816101000a81549073ffffffffffffffffffffffffffffffffffffffff021916905550600101620000f5565b5090565b90565b6000815190506200014581620002de565b92915050565b600082601f8301126200015d57600080fd5b8151620001746200016e8262000277565b62000249565b915081818352602084019350602081019050838560208402820111156200019a57600080fd5b60005b83811015620001ce5781620001b3888262000134565b8452602084019350602083019250506001810190506200019d565b5050505092915050565b600081519050620001e981620002f8565b92915050565b600080604083850312156200020357600080fd5b600083015167ffffffffffffffff8111156200021e57600080fd5b6200022c858286016200014b565b92505060206200023f85828601620001d8565b9150509250929050565b6000604051905081810181811067ffffffffffffffff821117156200026d57600080fd5b8060405250919050565b600067ffffffffffffffff8211156200028f57600080fd5b602082029050602081019050919050565b6000620002ad82620002b4565b9050919050565b600073ffffffffffffffffffffffffffffffffffffffff82169050919050565b6000819050919050565b620002e981620002a0565b8114620002f557600080fd5b50565b6200030381620002d4565b81146200030f57600080fd5b50565b61106680620003226000396000f3fe60806040526004361061007f5760003560e01c80639377d7111161004e5780639377d71114610135578063cacca4a014610176578063d3650fb8146101b3578063ffabc673146101f057610086565b80631703a0181461008b5780632f65142c146100b65780634c12fa47146100e15780636cb3e8ef1461010a57610086565b3661008657005b600080fd5b34801561009757600080fd5b506100a061022d565b6040516100ad9190610ea0565b60405180910390f35b3480156100c257600080fd5b506100cb610233565b6040516100d89190610e03565b60405180910390f35b3480156100ed57600080fd5b5061010860048036036101039190810190610ad8565b610321565b005b34801561011657600080fd5b5061011f6104fc565b60405161012c9190610de1565b60405180910390f35b34801561014157600080fd5b5061015c60048036036101579190810190610aaf565b61058a565b60405161016d959493929190610ebb565b60405180910390f35b34801561018257600080fd5b5061019d60048036036101989190810190610aaf565b6105fa565b6040516101aa9190610e25565b60405180910390f35b3480156101bf57600080fd5b506101da60048036036101d59190810190610aaf565b6109c9565b6040516101e79190610dc6565b60405180910390f35b3480156101fc57600080fd5b5061021760048036036102129190810190610a73565b610a05565b6040516102249190610e25565b60405180910390f35b60015481565b60606002805480602002602001604051908101604052809291908181526020016000905b8282101561031857838290600052602060002090600502016040518060a001604052908160008201548152602001600182015481526020016002820160009054906101000a900473ffffffffffffffffffffffffffffffffffffffff1673ffffffffffffffffffffffffffffffffffffffff1673ffffffffffffffffffffffffffffffffffffffff168152602001600382015481526020016004820160009054906101000a900460ff16151515158152505081526020019060010190610257565b50505050905090565b600080905060008090505b6000805490508110156103ba573373ffffffffffffffffffffffffffffffffffffffff166000828154811061035d57fe5b9060005260206000200160009054906101000a900473ffffffffffffffffffffffffffffffffffffffff1673ffffffffffffffffffffffffffffffffffffffff1614156103ad57600191506103ba565b808060010191505061032c565b5060019050806103ff576040517f08c379a00000000000000000000000000000000000000000000000000000000081526004016103f690610e60565b60405180910390fd5b60026040518060a0016040528060028054905081526020018581526020018473ffffffffffffffffffffffffffffffffffffffff16815260200160008152602001600015158152509080600181540180825580915050600190039060005260206000209060050201600090919091909150600082015181600001556020820151816001015560408201518160020160006101000a81548173ffffffffffffffffffffffffffffffffffffffff021916908373ffffffffffffffffffffffffffffffffffffffff1602179055506060820151816003015560808201518160040160006101000a81548160ff0219169083151502179055505050505050565b6060600080548060200260200160405190810160405280929190818152602001828054801561058057602002820191906000526020600020905b8160009054906101000a900473ffffffffffffffffffffffffffffffffffffffff1673ffffffffffffffffffffffffffffffffffffffff1681526020019060010190808311610536575b5050505050905090565b6002818154811061059757fe5b90600052602060002090600502016000915090508060000154908060010154908060020160009054906101000a900473ffffffffffffffffffffffffffffffffffffffff16908060030154908060040160009054906101000a900460ff16905085565b6000806000905060008090505b600080549050811015610695573373ffffffffffffffffffffffffffffffffffffffff166000828154811061063857fe5b9060005260206000200160009054906101000a900473ffffffffffffffffffffffffffffffffffffffff1673ffffffffffffffffffffffffffffffffffffffff1614156106885760019150610695565b8080600101915050610607565b5060019050806106da576040517f08c379a00000000000000000000000000000000000000000000000000000000081526004016106d190610e60565b60405180910390fd5b60001515600284815481106106eb57fe5b906000526020600020906005020160040160009054906101000a900460ff1615151461074c576040517f08c379a000000000000000000000000000000000000000000000000000000000815260040161074390610e80565b60405180910390fd5b60001515600360003373ffffffffffffffffffffffffffffffffffffffff1673ffffffffffffffffffffffffffffffffffffffff168152602001908152602001600020600085815260200190815260200160002060009054906101000a900460ff161515146107f0576040517f08c379a00000000000000000000000000000000000000000000000000000000081526004016107e790610e40565b60405180910390fd5b6001546002848154811061080057fe5b906000526020600020906005020160030154106108fe5760016002848154811061082657fe5b906000526020600020906005020160040160006101000a81548160ff02191690831515021790555060006002848154811061085d57fe5b906000526020600020906005020160020160009054906101000a900473ffffffffffffffffffffffffffffffffffffffff1690506000600285815481106108a057fe5b90600052602060002090600502016001015490508173ffffffffffffffffffffffffffffffffffffffff166108fc829081150290604051600060405180830381858888f193505050501580156108fa573d6000803e3d6000fd5b5050505b6002838154811061090b57fe5b9060005260206000209060050201600301600081548092919060010191905055506001600360003373ffffffffffffffffffffffffffffffffffffffff1673ffffffffffffffffffffffffffffffffffffffff168152602001908152602001600020600085815260200190815260200160002060006101000a81548160ff021916908315150217905550600283815481106109a257fe5b906000526020600020906005020160040160009054906101000a900460ff16915050919050565b600081815481106109d657fe5b906000526020600020016000915054906101000a900473ffffffffffffffffffffffffffffffffffffffff1681565b60036020528160005260406000206020528060005260406000206000915091509054906101000a900460ff1681565b600081359050610a4381610feb565b92915050565b600081359050610a5881611002565b92915050565b600081359050610a6d81611019565b92915050565b60008060408385031215610a8657600080fd5b6000610a9485828601610a34565b9250506020610aa585828601610a5e565b9150509250929050565b600060208284031215610ac157600080fd5b6000610acf84828501610a5e565b91505092915050565b60008060408385031215610aeb57600080fd5b6000610af985828601610a5e565b9250506020610b0a85828601610a49565b9150509250929050565b6000610b208383610b62565b60208301905092915050565b6000610b388383610d40565b60a08301905092915050565b610b4d81610fa3565b82525050565b610b5c81610fa3565b82525050565b610b6b81610f91565b82525050565b610b7a81610f91565b82525050565b6000610b8b82610f2e565b610b958185610f5e565b9350610ba083610f0e565b8060005b83811015610bd1578151610bb88882610b14565b9750610bc383610f44565b925050600181019050610ba4565b5085935050505092915050565b6000610be982610f39565b610bf38185610f6f565b9350610bfe83610f1e565b8060005b83811015610c2f578151610c168882610b2c565b9750610c2183610f51565b925050600181019050610c02565b5085935050505092915050565b610c4581610fb5565b82525050565b610c5481610fb5565b82525050565b6000610c67602383610f80565b91507f43616e6e6f74207369676e2074776963652066726f6d2073616d65206164647260008301527f65737300000000000000000000000000000000000000000000000000000000006020830152604082019050919050565b6000610ccd601783610f80565b91507f596f7520617265206e6f7420616e20617070726f7665720000000000000000006000830152602082019050919050565b6000610d0d601e83610f80565b91507f5472616e736665722068617320616c7265616479206265656e2073656e7400006000830152602082019050919050565b60a082016000820151610d566000850182610da8565b506020820151610d696020850182610da8565b506040820151610d7c6040850182610b44565b506060820151610d8f6060850182610da8565b506080820151610da26080850182610c3c565b50505050565b610db181610fe1565b82525050565b610dc081610fe1565b82525050565b6000602082019050610ddb6000830184610b71565b92915050565b60006020820190508181036000830152610dfb8184610b80565b905092915050565b60006020820190508181036000830152610e1d8184610bde565b905092915050565b6000602082019050610e3a6000830184610c4b565b92915050565b60006020820190508181036000830152610e5981610c5a565b9050919050565b60006020820190508181036000830152610e7981610cc0565b9050919050565b60006020820190508181036000830152610e9981610d00565b9050919050565b6000602082019050610eb56000830184610db7565b92915050565b600060a082019050610ed06000830188610db7565b610edd6020830187610db7565b610eea6040830186610b53565b610ef76060830185610db7565b610f046080830184610c4b565b9695505050505050565b6000819050602082019050919050565b6000819050602082019050919050565b600081519050919050565b600081519050919050565b6000602082019050919050565b6000602082019050919050565b600082825260208201905092915050565b600082825260208201905092915050565b600082825260208201905092915050565b6000610f9c82610fc1565b9050919050565b6000610fae82610fc1565b9050919050565b60008115159050919050565b600073ffffffffffffffffffffffffffffffffffffffff82169050919050565b6000819050919050565b610ff481610f91565b8114610fff57600080fd5b50565b61100b81610fa3565b811461101657600080fd5b50565b61102281610fe1565b811461102d57600080fd5b5056fea2646970667358221220e46d2415ad7ad2578a314be20c457e11287a623927ba036c4f1e41c10dd3e4f764736f6c63430006000033",
  "source": "pragma solidity 0.6.0;\r\npragma experimental ABIEncoderV2;\r\n\r\ncontract Wallet {\r\n    address[] public approvers;\r\n    uint public quorum;\r\n    \r\n    struct Transfer {\r\n        uint id;\r\n        uint amount;\r\n        address payable to;\r\n        uint approvals;\r\n        bool sent;\r\n    }\r\n    //mapping(uint => Transfer) public transfers;\r\n    //uint nextId;\r\n    Transfer[] public transfers;\r\n    mapping(address => mapping(uint => bool)) public approvals;\r\n    \r\n    constructor(address[] memory _approvers, uint _quorum) public {\r\n        approvers = _approvers;\r\n        quorum = _quorum;\r\n    }\r\n    \r\n    function getApprovers() external view returns(address[] memory) {\r\n        return approvers;\r\n    }\r\n    \r\n    function createTransfer(uint ethAmount, address payable to) external onlyApprover {\r\n        transfers.push(Transfer(\r\n            transfers.length,\r\n            ethAmount,\r\n            to,\r\n            0,\r\n            false\r\n        ));\r\n    }\r\n    \r\n    function getTransfers() public view returns(Transfer[] memory) {\r\n        return transfers;\r\n    }\r\n    \r\n    function approveTransfer(uint transferId) external onlyApprover returns(bool) {\r\n        require(transfers[transferId].sent == false, 'Transfer has already been sent');\r\n        require(approvals[msg.sender][transferId] == false, 'Cannot sign twice from same address');\r\n        \r\n        if(transfers[transferId].approvals >= quorum) {\r\n            // Send money\r\n            transfers[transferId].sent = true;\r\n            address payable to = transfers[transferId].to;\r\n            uint amount = transfers[transferId].amount;\r\n            to.transfer(amount);\r\n        }\r\n\r\n        transfers[transferId].approvals++;\r\n        approvals[msg.sender][transferId] = true;\r\n        \r\n        return transfers[transferId].sent;\r\n    }\r\n    \r\n    receive() external payable {}\r\n    \r\n    modifier onlyApprover {\r\n        bool allowed = false;\r\n        for(uint i = 0; i < approvers.length; i++) {\r\n            if(approvers[i] == msg.sender) {\r\n                allowed = true;\r\n                break;\r\n            }\r\n        }\r\n        require(allowed = true, \"You are not an approver\");\r\n        _;\r\n    }\r\n    \r\n}\r\n\r\n\r\n\r\n\r\n\r\n\r\n\r\n\r\n\r\n\r\n\r\n\r\n",
  "sourcePath": "D:/git/eattheblocks/blockchain-masterclass/wallet/contracts/Wallet.sol",
  "compiler": {
    "name": "solc",
    "version": "0.6.0+commit.26b70077.Emscripten.clang"
  },
  "schemaVersion": "3.4.1",
  "updatedAt": "2021-06-02T23:52:44.083Z",
  "devdoc": {
    "methods": {}
  },
  "userdoc": {
    "methods": {}
  }
}